{
  "contractName": "DogsOfDallas",
  "abi": [
    {
      "inputs": [],
      "stateMutability": "nonpayable",
      "type": "constructor"
    },
    {
      "inputs": [
        {
          "internalType": "uint256",
          "name": "",
          "type": "uint256"
        }
      ],
      "name": "dogs",
      "outputs": [
        {
          "internalType": "uint256",
          "name": "id",
          "type": "uint256"
        },
        {
          "internalType": "string",
          "name": "name",
          "type": "string"
        },
        {
          "internalType": "address",
          "name": "owner",
          "type": "address"
        },
        {
          "internalType": "string",
          "name": "breed",
          "type": "string"
        }
      ],
      "stateMutability": "view",
      "type": "function"
    },
    {
      "inputs": [],
      "name": "numDogs",
      "outputs": [
        {
          "internalType": "uint256",
          "name": "",
          "type": "uint256"
        }
      ],
      "stateMutability": "view",
      "type": "function"
    },
    {
      "inputs": [
        {
          "internalType": "string",
          "name": "_name",
          "type": "string"
        },
        {
          "internalType": "string",
          "name": "_breed",
          "type": "string"
        }
      ],
      "name": "addDog",
      "outputs": [
        {
          "internalType": "uint256",
          "name": "",
          "type": "uint256"
        }
      ],
      "stateMutability": "nonpayable",
      "type": "function"
    },
    {
      "inputs": [
        {
          "internalType": "uint256",
          "name": "_id",
          "type": "uint256"
        }
      ],
      "name": "getDog",
      "outputs": [
        {
          "components": [
            {
              "internalType": "uint256",
              "name": "id",
              "type": "uint256"
            },
            {
              "internalType": "string",
              "name": "name",
              "type": "string"
            },
            {
              "internalType": "address",
              "name": "owner",
              "type": "address"
            },
            {
              "internalType": "string",
              "name": "breed",
              "type": "string"
            }
          ],
          "internalType": "struct DogsOfDallas.Dog",
          "name": "",
          "type": "tuple"
        }
      ],
      "stateMutability": "view",
      "type": "function"
    }
  ],
  "bytecode": "0x608060405234801561001057600080fd5b5060008055610825806100246000396000f3fe608060405234801561001057600080fd5b506004361061004c5760003560e01c806338272356146100515780637c62e2a41461007d5780638b1d67671461009d578063ecea95f5146100be575b600080fd5b61006461005f366004610561565b6100c7565b60405161007494939291906105c7565b60405180910390f35b61009061008b366004610561565b610222565b604051610074919061060c565b6100b06100ab366004610711565b6103ce565b604051908152602001610074565b6100b060005481565b600181815481106100d757600080fd5b600091825260209091206004909102018054600182018054919350906100fc90610775565b80601f016020809104026020016040519081016040528092919081815260200182805461012890610775565b80156101755780601f1061014a57610100808354040283529160200191610175565b820191906000526020600020905b81548152906001019060200180831161015857829003601f168201915b505050600284015460038501805494956001600160a01b0390921694919350915061019f90610775565b80601f01602080910402602001604051908101604052809291908181526020018280546101cb90610775565b80156102185780601f106101ed57610100808354040283529160200191610218565b820191906000526020600020905b8154815290600101906020018083116101fb57829003601f168201915b5050505050905084565b6102566040518060800160405280600081526020016060815260200160006001600160a01b03168152602001606081525090565b60018281548110610269576102696107b0565b90600052602060002090600402016040518060800160405290816000820154815260200160018201805461029c90610775565b80601f01602080910402602001604051908101604052809291908181526020018280546102c890610775565b80156103155780601f106102ea57610100808354040283529160200191610315565b820191906000526020600020905b8154815290600101906020018083116102f857829003601f168201915b505050918352505060028201546001600160a01b0316602082015260038201805460409092019161034590610775565b80601f016020809104026020016040519081016040528092919081815260200182805461037190610775565b80156103be5780601f10610393576101008083540402835291602001916103be565b820191906000526020600020905b8154815290600101906020018083116103a157829003601f168201915b5050505050815250509050919050565b60408051608081018252600080548252602080830186815233948401949094526060830185905260018054808201825590835283517fb10e2d527612073b26eecdfd717e6a320cf44b4afac2b0732d9fcbe2b7fa0cf6600490920291820190815594518051939585949093610467937fb10e2d527612073b26eecdfd717e6a320cf44b4afac2b0732d9fcbe2b7fa0cf7019201906104c8565b5060408201516002820180546001600160a01b0319166001600160a01b03909216919091179055606082015180516104a99160038401916020909101906104c8565b5050600080549150806104bb836107c6565b9091555050519392505050565b8280546104d490610775565b90600052602060002090601f0160209004810192826104f6576000855561053c565b82601f1061050f57805160ff191683800117855561053c565b8280016001018555821561053c579182015b8281111561053c578251825591602001919060010190610521565b5061054892915061054c565b5090565b5b80821115610548576000815560010161054d565b60006020828403121561057357600080fd5b5035919050565b6000815180845260005b818110156105a057602081850181015186830182015201610584565b818111156105b2576000602083870101525b50601f01601f19169290920160200192915050565b8481526080602082015260006105e0608083018661057a565b6001600160a01b03851660408401528281036060840152610601818561057a565b979650505050505050565b6020815281516020820152600060208301516080604084015261063260a084018261057a565b60408501516001600160a01b0316606085810191909152850151848203601f19016080860152909150610665828261057a565b95945050505050565b634e487b7160e01b600052604160045260246000fd5b600082601f83011261069557600080fd5b813567ffffffffffffffff808211156106b0576106b061066e565b604051601f8301601f19908116603f011681019082821181831017156106d8576106d861066e565b816040528381528660208588010111156106f157600080fd5b836020870160208301376000602085830101528094505050505092915050565b6000806040838503121561072457600080fd5b823567ffffffffffffffff8082111561073c57600080fd5b61074886838701610684565b9350602085013591508082111561075e57600080fd5b5061076b85828601610684565b9150509250929050565b600181811c9082168061078957607f821691505b602082108114156107aa57634e487b7160e01b600052602260045260246000fd5b50919050565b634e487b7160e01b600052603260045260246000fd5b60006000198214156107e857634e487b7160e01b600052601160045260246000fd5b506001019056fea26469706673582212207d6e3b6e476c97327b0271386d1e0192adbba33865fe40fbaade34064d4f565c64736f6c634300080a0033",
  "immutableReferences": {},
  "source": "// SPDX-License-Identifier: MIT\n/// @author Jon Senterfitt\npragma solidity >=0.4.22 <0.9.0;\n\ncontract DogsOfDallas {\n    // Variables\n    uint public numDogs;\n\n    // Dog struct\n    struct Dog {\n        uint id;\n        string name;\n        address owner;\n        string breed;\n    }\n\n    // Dogs array\n    Dog[] public dogs;\n\n    // Constructor\n    constructor() {\n        numDogs = 0;\n    }\n\n    // Functions\n\n    // Add dog with the given name, owner, and breed\n    function addDog(string memory _name, string memory _breed) public returns (uint) {\n        Dog memory dog = Dog({\n            id: numDogs,\n            name: _name,\n            owner: msg.sender,\n            breed: _breed\n        });\n        dogs.push(dog);\n        numDogs++;\n        return dog.id;\n    }\n\n    function getDog(uint _id) public view returns (Dog memory) {\n        // Return dog\n        return dogs[_id];\n    }\n}\n",
  "sourcePath": "/Users/jonsenterfitt/NEODAO/wip/truffle/dogs-of-dallas-project/contracts/DogsOfDallas.sol",
  "compiler": {
    "name": "solc",
    "version": "0.8.10+commit.fc410830.Emscripten.clang"
  },
  "schemaVersion": "3.4.7",
  "updatedAt": "2022-04-20T19:03:21.104Z",
  "devdoc": {
    "kind": "dev",
    "methods": {},
    "version": 1
  },
  "userdoc": {
    "kind": "user",
    "methods": {},
    "version": 1
  }
}