{
  "contractName": "DogsOfDallas",
  "abi": [
    {
      "inputs": [],
      "name": "last_completed_migration",
      "outputs": [
        {
          "internalType": "uint256",
          "name": "",
          "type": "uint256"
        }
      ],
      "stateMutability": "view",
      "type": "function",
      "constant": true
    },
    {
      "inputs": [],
      "name": "owner",
      "outputs": [
        {
          "internalType": "address",
          "name": "",
          "type": "address"
        }
      ],
      "stateMutability": "view",
      "type": "function",
      "constant": true
    },
    {
      "inputs": [],
      "name": "DogsOfDallasConstruct",
      "outputs": [],
      "stateMutability": "nonpayable",
      "type": "function"
    },
    {
      "inputs": [
        {
          "internalType": "string",
          "name": "_name",
          "type": "string"
        },
        {
          "internalType": "string",
          "name": "_birthdate",
          "type": "string"
        },
        {
          "internalType": "string[]",
          "name": "_breeds",
          "type": "string[]"
        }
      ],
      "name": "registerDog",
      "outputs": [],
      "stateMutability": "nonpayable",
      "type": "function"
    },
    {
      "inputs": [
        {
          "internalType": "address",
          "name": "_owner",
          "type": "address"
        },
        {
          "internalType": "uint256",
          "name": "_dog_id",
          "type": "uint256"
        },
        {
          "internalType": "string",
          "name": "_name",
          "type": "string"
        },
        {
          "internalType": "string",
          "name": "_birthdate",
          "type": "string"
        },
        {
          "internalType": "string[]",
          "name": "_breeds",
          "type": "string[]"
        }
      ],
      "name": "updateDog",
      "outputs": [],
      "stateMutability": "nonpayable",
      "type": "function"
    },
    {
      "inputs": [
        {
          "internalType": "address",
          "name": "_owner",
          "type": "address"
        },
        {
          "internalType": "uint256",
          "name": "_dog_id",
          "type": "uint256"
        }
      ],
      "name": "deleteDog",
      "outputs": [],
      "stateMutability": "nonpayable",
      "type": "function"
    },
    {
      "inputs": [
        {
          "internalType": "uint256",
          "name": "_dog_id",
          "type": "uint256"
        }
      ],
      "name": "viewDog",
      "outputs": [
        {
          "internalType": "string",
          "name": "_name",
          "type": "string"
        },
        {
          "internalType": "string",
          "name": "_birthdate",
          "type": "string"
        },
        {
          "internalType": "string[]",
          "name": "_breeds",
          "type": "string[]"
        }
      ],
      "stateMutability": "view",
      "type": "function",
      "constant": true
    },
    {
      "inputs": [],
      "name": "getDogs",
      "outputs": [
        {
          "components": [
            {
              "internalType": "uint256",
              "name": "id",
              "type": "uint256"
            },
            {
              "internalType": "string",
              "name": "name",
              "type": "string"
            },
            {
              "internalType": "string",
              "name": "birthdate",
              "type": "string"
            },
            {
              "internalType": "string[]",
              "name": "breeds",
              "type": "string[]"
            },
            {
              "internalType": "address[]",
              "name": "owners",
              "type": "address[]"
            }
          ],
          "internalType": "struct DogsOfDallas.Dog[]",
          "name": "_dogs",
          "type": "tuple[]"
        }
      ],
      "stateMutability": "view",
      "type": "function",
      "constant": true
    },
    {
      "inputs": [],
      "name": "getDogsRegistered",
      "outputs": [
        {
          "internalType": "uint256",
          "name": "",
          "type": "uint256"
        }
      ],
      "stateMutability": "view",
      "type": "function",
      "constant": true
    },
    {
      "inputs": [],
      "name": "getDogsUpdated",
      "outputs": [
        {
          "internalType": "uint256",
          "name": "",
          "type": "uint256"
        }
      ],
      "stateMutability": "view",
      "type": "function",
      "constant": true
    },
    {
      "inputs": [],
      "name": "getDogsDeleted",
      "outputs": [
        {
          "internalType": "uint256",
          "name": "",
          "type": "uint256"
        }
      ],
      "stateMutability": "view",
      "type": "function",
      "constant": true
    },
    {
      "inputs": [],
      "name": "getDogsViewed",
      "outputs": [
        {
          "internalType": "uint256",
          "name": "",
          "type": "uint256"
        }
      ],
      "stateMutability": "view",
      "type": "function",
      "constant": true
    },
    {
      "inputs": [],
      "name": "getDogsCount",
      "outputs": [
        {
          "internalType": "uint256",
          "name": "",
          "type": "uint256"
        }
      ],
      "stateMutability": "view",
      "type": "function",
      "constant": true
    },
    {
      "inputs": [
        {
          "internalType": "uint256",
          "name": "completed",
          "type": "uint256"
        }
      ],
      "name": "setCompleted",
      "outputs": [],
      "stateMutability": "nonpayable",
      "type": "function"
    }
  ],
  "bytecode": "0x6080604052600080546001600160a01b0319163317905534801561002257600080fd5b506117a1806100326000396000f3fe608060405234801561001057600080fd5b50600436106100ea5760003560e01c8063cb80ed271161008c578063f8ff3b1a11610066578063f8ff3b1a146101a2578063fb739310146101c4578063fc4d662e146101d7578063fdacd576146101ea57600080fd5b8063cb80ed271461017d578063f4350efc14610192578063f62d83331461019a57600080fd5b8063661325e2116100c8578063661325e21461012f5780638da5cb5b14610137578063ad92ee4614610162578063c279b2e11461017557600080fd5b8063222aea02146100ef578063251e4b4f14610106578063445df0ac14610126575b600080fd5b6003545b6040519081526020015b60405180910390f35b61012460006003819055600481905560058190556006819055600755565b005b6100f360015481565b6007546100f3565b60005461014a906001600160a01b031681565b6040516001600160a01b0390911681526020016100fd565b610124610170366004611320565b6101fd565b6006546100f3565b61018561032b565b6040516100fd9190611439565b6004546100f3565b6005546100f3565b6101b56101b0366004611549565b6105f3565b6040516100fd93929190611562565b6101246101d2366004611605565b610903565b6101246101e53660046116a8565b610c63565b6101246101f8366004611549565b610fae565b6004805490600061020d836116e8565b909155505060038054906000610222836116e8565b919050555060026040518060a001604052806003548152602001858152602001848152602001838152602001600067ffffffffffffffff811115610268576102686111ca565b604051908082528060200260200182016040528015610291578160200160208202803683370190505b50905281546001818101845560009384526020938490208351600590930201918255838301518051939492936102cf93928501929190910190611029565b50604082015180516102eb916002840191602090910190611029565b50606082015180516103079160038401916020909101906110ad565b5060808201518051610323916004840191602090910190611106565b505050505050565b60606002805480602002602001604051908101604052809291908181526020016000905b828210156105ea57838290600052602060002090600502016040518060a00160405290816000820154815260200160018201805461038c90611703565b80601f01602080910402602001604051908101604052809291908181526020018280546103b890611703565b80156104055780601f106103da57610100808354040283529160200191610405565b820191906000526020600020905b8154815290600101906020018083116103e857829003601f168201915b5050505050815260200160028201805461041e90611703565b80601f016020809104026020016040519081016040528092919081815260200182805461044a90611703565b80156104975780601f1061046c57610100808354040283529160200191610497565b820191906000526020600020905b81548152906001019060200180831161047a57829003601f168201915b5050505050815260200160038201805480602002602001604051908101604052809291908181526020016000905b828210156105715783829060005260206000200180546104e490611703565b80601f016020809104026020016040519081016040528092919081815260200182805461051090611703565b801561055d5780601f106105325761010080835404028352916020019161055d565b820191906000526020600020905b81548152906001019060200180831161054057829003601f168201915b5050505050815260200190600101906104c5565b505050508152602001600482018054806020026020016040519081016040528092919081815260200182805480156105d257602002820191906000526020600020905b81546001600160a01b031681526001909101906020018083116105b4575b5050505050815250508152602001906001019061034f565b50505050905090565b606080806000600261060660018761173e565b8154811061061657610616611755565b90600052602060002090600502016040518060a00160405290816000820154815260200160018201805461064990611703565b80601f016020809104026020016040519081016040528092919081815260200182805461067590611703565b80156106c25780601f10610697576101008083540402835291602001916106c2565b820191906000526020600020905b8154815290600101906020018083116106a557829003601f168201915b505050505081526020016002820180546106db90611703565b80601f016020809104026020016040519081016040528092919081815260200182805461070790611703565b80156107545780601f1061072957610100808354040283529160200191610754565b820191906000526020600020905b81548152906001019060200180831161073757829003601f168201915b5050505050815260200160038201805480602002602001604051908101604052809291908181526020016000905b8282101561082e5783829060005260206000200180546107a190611703565b80601f01602080910402602001604051908101604052809291908181526020018280546107cd90611703565b801561081a5780601f106107ef5761010080835404028352916020019161081a565b820191906000526020600020905b8154815290600101906020018083116107fd57829003601f168201915b505050505081526020019060010190610782565b5050505081526020016004820180548060200260200160405190810160405280929190818152602001828054801561088f57602002820191906000526020600020905b81546001600160a01b03168152600190910190602001808311610871575b5050505050815250509050848160000151146108e75760405162461bcd60e51b8152602060048201526012602482015271111bd9c8191bd95cc81b9bdd08195e1a5cdd60721b60448201526064015b60405180910390fd5b6020810151604082015160609092015190969195509350915050565b60058054906000610913836116e8565b9091555060009050600261092860018761173e565b8154811061093857610938611755565b90600052602060002090600502016040518060a00160405290816000820154815260200160018201805461096b90611703565b80601f016020809104026020016040519081016040528092919081815260200182805461099790611703565b80156109e45780601f106109b9576101008083540402835291602001916109e4565b820191906000526020600020905b8154815290600101906020018083116109c757829003601f168201915b505050505081526020016002820180546109fd90611703565b80601f0160208091040260200160405190810160405280929190818152602001828054610a2990611703565b8015610a765780601f10610a4b57610100808354040283529160200191610a76565b820191906000526020600020905b815481529060010190602001808311610a5957829003601f168201915b5050505050815260200160038201805480602002602001604051908101604052809291908181526020016000905b82821015610b50578382906000526020600020018054610ac390611703565b80601f0160208091040260200160405190810160405280929190818152602001828054610aef90611703565b8015610b3c5780601f10610b1157610100808354040283529160200191610b3c565b820191906000526020600020905b815481529060010190602001808311610b1f57829003601f168201915b505050505081526020019060010190610aa4565b50505050815260200160048201805480602002602001604051908101604052809291908181526020018280548015610bb157602002820191906000526020600020905b81546001600160a01b03168152600190910190602001808311610b93575b5050505050815250509050856001600160a01b03168160800151600081518110610bdd57610bdd611755565b60200260200101516001600160a01b031614610c495760405162461bcd60e51b815260206004820152602560248201527f4f6e6c7920746865206f776e6572206f66206120646f672063616e20757064616044820152641d19481a5d60da1b60648201526084016108de565b602081019390935260408301919091526060909101525050565b60068054906000610c73836116e8565b90915550600090506002610c8860018461173e565b81548110610c9857610c98611755565b90600052602060002090600502016040518060a001604052908160008201548152602001600182018054610ccb90611703565b80601f0160208091040260200160405190810160405280929190818152602001828054610cf790611703565b8015610d445780601f10610d1957610100808354040283529160200191610d44565b820191906000526020600020905b815481529060010190602001808311610d2757829003601f168201915b50505050508152602001600282018054610d5d90611703565b80601f0160208091040260200160405190810160405280929190818152602001828054610d8990611703565b8015610dd65780601f10610dab57610100808354040283529160200191610dd6565b820191906000526020600020905b815481529060010190602001808311610db957829003601f168201915b5050505050815260200160038201805480602002602001604051908101604052809291908181526020016000905b82821015610eb0578382906000526020600020018054610e2390611703565b80601f0160208091040260200160405190810160405280929190818152602001828054610e4f90611703565b8015610e9c5780601f10610e7157610100808354040283529160200191610e9c565b820191906000526020600020905b815481529060010190602001808311610e7f57829003601f168201915b505050505081526020019060010190610e04565b50505050815260200160048201805480602002602001604051908101604052809291908181526020018280548015610f1157602002820191906000526020600020905b81546001600160a01b03168152600190910190602001808311610ef3575b5050505050815250509050826001600160a01b03168160800151600081518110610f3d57610f3d611755565b60200260200101516001600160a01b031614610fa95760405162461bcd60e51b815260206004820152602560248201527f4f6e6c7920746865206f776e6572206f66206120646f672063616e2064656c656044820152641d19481a5d60da1b60648201526084016108de565b505050565b6000546001600160a01b031633146110245760405162461bcd60e51b815260206004820152603360248201527f546869732066756e6374696f6e206973207265737472696374656420746f207460448201527234329031b7b73a3930b1ba13b99037bbb732b960691b60648201526084016108de565b600155565b82805461103590611703565b90600052602060002090601f016020900481019282611057576000855561109d565b82601f1061107057805160ff191683800117855561109d565b8280016001018555821561109d579182015b8281111561109d578251825591602001919060010190611082565b506110a992915061115b565b5090565b8280548282559060005260206000209081019282156110fa579160200282015b828111156110fa57825180516110ea918491602090910190611029565b50916020019190600101906110cd565b506110a9929150611170565b82805482825590600052602060002090810192821561109d579160200282015b8281111561109d57825182546001600160a01b0319166001600160a01b03909116178255602090920191600190910190611126565b5b808211156110a9576000815560010161115c565b808211156110a9576000611184828261118d565b50600101611170565b50805461119990611703565b6000825580601f106111a9575050565b601f0160209004906000526020600020908101906111c7919061115b565b50565b634e487b7160e01b600052604160045260246000fd5b604051601f8201601f1916810167ffffffffffffffff81118282101715611209576112096111ca565b604052919050565b600082601f83011261122257600080fd5b813567ffffffffffffffff81111561123c5761123c6111ca565b61124f601f8201601f19166020016111e0565b81815284602083860101111561126457600080fd5b816020850160208301376000918101602001919091529392505050565b600082601f83011261129257600080fd5b8135602067ffffffffffffffff808311156112af576112af6111ca565b8260051b6112be8382016111e0565b93845285810183019383810190888611156112d857600080fd5b84880192505b85831015611314578235848111156112f65760008081fd5b6113048a87838c0101611211565b83525091840191908401906112de565b98975050505050505050565b60008060006060848603121561133557600080fd5b833567ffffffffffffffff8082111561134d57600080fd5b61135987838801611211565b9450602086013591508082111561136f57600080fd5b61137b87838801611211565b9350604086013591508082111561139157600080fd5b5061139e86828701611281565b9150509250925092565b6000815180845260005b818110156113ce576020818501810151868301820152016113b2565b818111156113e0576000602083870101525b50601f01601f19169290920160200192915050565b600081518084526020808501945080840160005b8381101561142e5781516001600160a01b031687529582019590820190600101611409565b509495945050505050565b602080825282518282018190526000919060409081850190600581811b8701840188860187805b8581101561153957603f198b8503018752825160a0815186528a820151818c88015261148e828801826113a8565b915050898201518682038b8801526114a682826113a8565b606084810151898303918a019190915280518083529193508d840192508d0190808a1b84018e01875b8281101561150257601f198683030185526114eb8285516113a8565b91508f840193508f850194506001810190506114cf565b506080958601518a82038b88015295945061151d81876113f5565b9c8f019c99505050958c01955050506001919091019050611460565b50919a9950505050505050505050565b60006020828403121561155b57600080fd5b5035919050565b60608152600061157560608301866113a8565b60208382038185015261158882876113a8565b915083820360408501528185518084528284019150828160051b85010183880160005b838110156115d957601f198784030185526115c78383516113a8565b948601949250908501906001016115ab565b50909a9950505050505050505050565b80356001600160a01b038116811461160057600080fd5b919050565b600080600080600060a0868803121561161d57600080fd5b611626866115e9565b945060208601359350604086013567ffffffffffffffff8082111561164a57600080fd5b61165689838a01611211565b9450606088013591508082111561166c57600080fd5b61167889838a01611211565b9350608088013591508082111561168e57600080fd5b5061169b88828901611281565b9150509295509295909350565b600080604083850312156116bb57600080fd5b6116c4836115e9565b946020939093013593505050565b634e487b7160e01b600052601160045260246000fd5b60006000198214156116fc576116fc6116d2565b5060010190565b600181811c9082168061171757607f821691505b6020821081141561173857634e487b7160e01b600052602260045260246000fd5b50919050565b600082821015611750576117506116d2565b500390565b634e487b7160e01b600052603260045260246000fdfea26469706673582212204c69b7e422225afc7c2ecd4249c3194bef2568309f8ca410a4aa16cf53c64d1864736f6c634300080a0033",
  "immutableReferences": {},
  "source": "// SPDX-License-Identifier: MIT\n/// @author Jon Senterfitt\npragma solidity >=0.4.22 <0.9.0;\n\ncontract DogsOfDallas {\n  address public owner = msg.sender;\n  uint public last_completed_migration;\n\n  modifier restricted() {\n    require(\n      msg.sender == owner,\n      \"This function is restricted to the contract's owner\"\n    );\n    _;\n  }\n\n  struct Dog {\n        uint id;\n        string name;\n        string birthdate;\n        // Array of breeds as strings\n        string[] breeds;\n        // Array of owners as addresses\n        address[] owners;\n    }\n\n    Dog[] dogs;\n    uint dogs_count;\n    uint dogs_registered;\n    uint dogs_updated;\n    uint dogs_deleted;\n    uint dogs_viewed;\n    \n    function DogsOfDallasConstruct() public {\n        dogs_count = 0;\n        dogs_registered = 0;\n        dogs_updated = 0;\n        dogs_deleted = 0;\n        dogs_viewed = 0;\n    }\n\n    // Add a new dog to the registry\n    function registerDog(string memory _name, string memory _birthdate, string[] memory _breeds) public {\n        dogs_registered++;\n        dogs_count++;\n        dogs.push(Dog({\n            id: dogs_count,\n            name: _name,\n            birthdate: _birthdate,\n            breeds: _breeds,\n            owners: new address[](0)\n        }));\n    }\n\n    // Update a dog by owner address and dog id\n    function updateDog(address _owner, uint _dog_id, string memory _name, string memory _birthdate, string[] memory _breeds) public {\n        dogs_updated++;\n        Dog memory dog = dogs[_dog_id - 1];\n        require(dog.owners[0] == _owner, \"Only the owner of a dog can update it\");\n        dog.name = _name;\n        dog.birthdate = _birthdate;\n        dog.breeds = _breeds;\n    }\n\n    // Delete a dog by owner address and dog id\n    function deleteDog(address _owner, uint _dog_id) public {\n        dogs_deleted++;\n        Dog memory dog = dogs[_dog_id - 1];\n        require(dog.owners[0] == _owner, \"Only the owner of a dog can delete it\");\n    }\n\n    // View a dog by owner address and dog id\n    function viewDog(uint _dog_id) public view returns (string memory _name, string memory _birthdate, string[] memory _breeds) {\n\n        // Check if the dog exists\n        Dog memory dog = dogs[_dog_id - 1]; \n        require(dog.id == _dog_id, \"Dog does not exist\");\n\n        \n        _name = dog.name;\n        _birthdate = dog.birthdate;\n        _breeds = dog.breeds;\n    }\n\n    // Get a list of dogs\n    function getDogs() public view returns (Dog[] memory _dogs) {\n        // dogs_viewed++;\n        _dogs = dogs;\n    }\n\n    // This function allows owners of dogs in the city of Dallas to view the number of dogs registered on the blockchain.\n    function getDogsRegistered() public view returns (uint) {\n        return dogs_registered;\n    }\n\n    // This function allows owners of dogs in the city of Dallas to view the number of dogs updated on the blockchain.\n    function getDogsUpdated() public view returns (uint) {\n        return dogs_updated;\n    }\n\n    // This function allows owners of dogs in the city of Dallas to view the number of dogs deleted on the blockchain.\n    function getDogsDeleted() public view returns (uint) {\n        return dogs_deleted;\n    }\n\n    // This function allows owners of dogs in the city of Dallas to view the number of dogs viewed on the blockchain.\n    function getDogsViewed() public view returns (uint) {\n        return dogs_viewed;\n    }\n\n    // This function allows owners of dogs in the city of Dallas to view the number of dogs on the blockchain.\n    function getDogsCount() public view returns (uint) {\n        return dogs_count;\n    }\n    \n  function setCompleted(uint completed) public restricted {\n    last_completed_migration = completed;\n  }\n\n  \n}",
  "sourcePath": "/Users/jonsenterfitt/NEODAO/wip/truffle/dogs-of-dallas-project/contracts/DogsOfDallas.sol",
  "compiler": {
    "name": "solc",
    "version": "0.8.10+commit.fc410830.Emscripten.clang"
  },
  "schemaVersion": "3.4.7",
  "updatedAt": "2022-04-20T03:33:17.874Z",
  "networkType": "ethereum",
  "devdoc": {
    "kind": "dev",
    "methods": {},
    "version": 1
  },
  "userdoc": {
    "kind": "user",
    "methods": {},
    "version": 1
  }
}