{
  "contractName": "DogsOfDallas",
  "abi": [
    {
      "inputs": [],
      "name": "last_completed_migration",
      "outputs": [
        {
          "internalType": "uint256",
          "name": "",
          "type": "uint256"
        }
      ],
      "stateMutability": "view",
      "type": "function",
      "constant": true
    },
    {
      "inputs": [],
      "name": "owner",
      "outputs": [
        {
          "internalType": "address",
          "name": "",
          "type": "address"
        }
      ],
      "stateMutability": "view",
      "type": "function",
      "constant": true
    },
    {
      "inputs": [],
      "name": "DogsOfDallasConstruct",
      "outputs": [],
      "stateMutability": "nonpayable",
      "type": "function"
    },
    {
      "inputs": [
        {
          "internalType": "string",
          "name": "_name",
          "type": "string"
        },
        {
          "internalType": "string",
          "name": "_birthdate",
          "type": "string"
        },
        {
          "internalType": "string[]",
          "name": "_breeds",
          "type": "string[]"
        }
      ],
      "name": "registerDog",
      "outputs": [],
      "stateMutability": "nonpayable",
      "type": "function"
    },
    {
      "inputs": [
        {
          "internalType": "address",
          "name": "_owner",
          "type": "address"
        },
        {
          "internalType": "uint256",
          "name": "_dog_id",
          "type": "uint256"
        },
        {
          "internalType": "string",
          "name": "_name",
          "type": "string"
        },
        {
          "internalType": "string",
          "name": "_birthdate",
          "type": "string"
        },
        {
          "internalType": "string[]",
          "name": "_breeds",
          "type": "string[]"
        }
      ],
      "name": "updateDog",
      "outputs": [],
      "stateMutability": "nonpayable",
      "type": "function"
    },
    {
      "inputs": [
        {
          "internalType": "address",
          "name": "_owner",
          "type": "address"
        },
        {
          "internalType": "uint256",
          "name": "_dog_id",
          "type": "uint256"
        }
      ],
      "name": "deleteDog",
      "outputs": [],
      "stateMutability": "nonpayable",
      "type": "function"
    },
    {
      "inputs": [
        {
          "internalType": "address",
          "name": "_owner",
          "type": "address"
        },
        {
          "internalType": "uint256",
          "name": "_dog_id",
          "type": "uint256"
        }
      ],
      "name": "viewDog",
      "outputs": [
        {
          "internalType": "string",
          "name": "_name",
          "type": "string"
        },
        {
          "internalType": "string",
          "name": "_birthdate",
          "type": "string"
        },
        {
          "internalType": "string[]",
          "name": "_breeds",
          "type": "string[]"
        }
      ],
      "stateMutability": "view",
      "type": "function",
      "constant": true
    },
    {
      "inputs": [],
      "name": "getDogsRegistered",
      "outputs": [
        {
          "internalType": "uint256",
          "name": "",
          "type": "uint256"
        }
      ],
      "stateMutability": "view",
      "type": "function",
      "constant": true
    },
    {
      "inputs": [],
      "name": "getDogsUpdated",
      "outputs": [
        {
          "internalType": "uint256",
          "name": "",
          "type": "uint256"
        }
      ],
      "stateMutability": "view",
      "type": "function",
      "constant": true
    },
    {
      "inputs": [],
      "name": "getDogsDeleted",
      "outputs": [
        {
          "internalType": "uint256",
          "name": "",
          "type": "uint256"
        }
      ],
      "stateMutability": "view",
      "type": "function",
      "constant": true
    },
    {
      "inputs": [],
      "name": "getDogsViewed",
      "outputs": [
        {
          "internalType": "uint256",
          "name": "",
          "type": "uint256"
        }
      ],
      "stateMutability": "view",
      "type": "function",
      "constant": true
    },
    {
      "inputs": [],
      "name": "getDogsCount",
      "outputs": [
        {
          "internalType": "uint256",
          "name": "",
          "type": "uint256"
        }
      ],
      "stateMutability": "view",
      "type": "function",
      "constant": true
    },
    {
      "inputs": [
        {
          "internalType": "uint256",
          "name": "completed",
          "type": "uint256"
        }
      ],
      "name": "setCompleted",
      "outputs": [],
      "stateMutability": "nonpayable",
      "type": "function"
    }
  ],
  "bytecode": "0x6080604052336000806101000a81548173ffffffffffffffffffffffffffffffffffffffff021916908373ffffffffffffffffffffffffffffffffffffffff16021790555034801561005057600080fd5b50611bef806100606000396000f3fe608060405234801561001057600080fd5b50600436106100cf5760003560e01c8063ad92ee461161008c578063f62d833311610066578063f62d8333146101e0578063fb739310146101fe578063fc4d662e1461021a578063fdacd57614610236576100cf565b8063ad92ee4614610188578063c279b2e1146101a4578063f4350efc146101c2576100cf565b8063222aea02146100d4578063251e4b4f146100f2578063445df0ac146100fc578063661325e21461011a578063728099f6146101385780638da5cb5b1461016a575b600080fd5b6100dc610252565b6040516100e99190611163565b60405180910390f35b6100fa61025c565b005b610104610286565b6040516101119190611163565b60405180910390f35b61012261028c565b60405161012f9190611163565b60405180910390f35b610152600480360381019061014d919061121c565b610296565b60405161016193929190611401565b60405180910390f35b610172610617565b60405161017f919061145c565b60405180910390f35b6101a2600480360381019061019d9190611692565b61063b565b005b6101ac61078d565b6040516101b99190611163565b60405180910390f35b6101ca610797565b6040516101d79190611163565b60405180910390f35b6101e86107a1565b6040516101f59190611163565b60405180910390f35b61021860048036038101906102139190611739565b6107ab565b005b610234600480360381019061022f919061121c565b610b45565b005b610250600480360381019061024b9190611808565b610ec1565b005b6000600354905090565b60006003819055506000600481905550600060058190555060006006819055506000600781905550565b60015481565b6000600754905090565b6060806060600060026001866102ac9190611864565b815481106102bd576102bc611898565b5b90600052602060002090600502016040518060a0016040529081600082015481526020016001820180546102f0906118f6565b80601f016020809104026020016040519081016040528092919081815260200182805461031c906118f6565b80156103695780601f1061033e57610100808354040283529160200191610369565b820191906000526020600020905b81548152906001019060200180831161034c57829003601f168201915b50505050508152602001600282018054610382906118f6565b80601f01602080910402602001604051908101604052809291908181526020018280546103ae906118f6565b80156103fb5780601f106103d0576101008083540402835291602001916103fb565b820191906000526020600020905b8154815290600101906020018083116103de57829003601f168201915b5050505050815260200160038201805480602002602001604051908101604052809291908181526020016000905b828210156104d5578382906000526020600020018054610448906118f6565b80601f0160208091040260200160405190810160405280929190818152602001828054610474906118f6565b80156104c15780601f10610496576101008083540402835291602001916104c1565b820191906000526020600020905b8154815290600101906020018083116104a457829003601f168201915b505050505081526020019060010190610429565b5050505081526020016004820180548060200260200160405190810160405280929190818152602001828054801561056257602002820191906000526020600020905b8160009054906101000a900473ffffffffffffffffffffffffffffffffffffffff1673ffffffffffffffffffffffffffffffffffffffff1681526020019060010190808311610518575b50505050508152505090508573ffffffffffffffffffffffffffffffffffffffff16816080015160008151811061059c5761059b611898565b5b602002602001015173ffffffffffffffffffffffffffffffffffffffff16146105fa576040517f08c379a00000000000000000000000000000000000000000000000000000000081526004016105f19061199a565b60405180910390fd5b806020015193508060400151925080606001519150509250925092565b60008054906101000a900473ffffffffffffffffffffffffffffffffffffffff1681565b6004600081548092919061064e906119ba565b919050555060036000815480929190610666906119ba565b919050555060026040518060a001604052806003548152602001858152602001848152602001838152602001600067ffffffffffffffff8111156106ad576106ac611481565b5b6040519080825280602002602001820160405280156106db5781602001602082028036833780820191505090505b50815250908060018154018082558091505060019003906000526020600020906005020160009091909190915060008201518160000155602082015181600101908051906020019061072e929190610f59565b50604082015181600201908051906020019061074b929190610f59565b506060820151816003019080519060200190610768929190610fdf565b50608082015181600401908051906020019061078592919061103f565b505050505050565b6000600654905090565b6000600454905090565b6000600554905090565b600560008154809291906107be906119ba565b9190505550600060026001866107d49190611864565b815481106107e5576107e4611898565b5b90600052602060002090600502016040518060a001604052908160008201548152602001600182018054610818906118f6565b80601f0160208091040260200160405190810160405280929190818152602001828054610844906118f6565b80156108915780601f1061086657610100808354040283529160200191610891565b820191906000526020600020905b81548152906001019060200180831161087457829003601f168201915b505050505081526020016002820180546108aa906118f6565b80601f01602080910402602001604051908101604052809291908181526020018280546108d6906118f6565b80156109235780601f106108f857610100808354040283529160200191610923565b820191906000526020600020905b81548152906001019060200180831161090657829003601f168201915b5050505050815260200160038201805480602002602001604051908101604052809291908181526020016000905b828210156109fd578382906000526020600020018054610970906118f6565b80601f016020809104026020016040519081016040528092919081815260200182805461099c906118f6565b80156109e95780601f106109be576101008083540402835291602001916109e9565b820191906000526020600020905b8154815290600101906020018083116109cc57829003601f168201915b505050505081526020019060010190610951565b50505050815260200160048201805480602002602001604051908101604052809291908181526020018280548015610a8a57602002820191906000526020600020905b8160009054906101000a900473ffffffffffffffffffffffffffffffffffffffff1673ffffffffffffffffffffffffffffffffffffffff1681526020019060010190808311610a40575b50505050508152505090508573ffffffffffffffffffffffffffffffffffffffff168160800151600081518110610ac457610ac3611898565b5b602002602001015173ffffffffffffffffffffffffffffffffffffffff1614610b22576040517f08c379a0000000000000000000000000000000000000000000000000000000008152600401610b1990611a75565b60405180910390fd5b838160200181905250828160400181905250818160600181905250505050505050565b60066000815480929190610b58906119ba565b919050555060006002600183610b6e9190611864565b81548110610b7f57610b7e611898565b5b90600052602060002090600502016040518060a001604052908160008201548152602001600182018054610bb2906118f6565b80601f0160208091040260200160405190810160405280929190818152602001828054610bde906118f6565b8015610c2b5780601f10610c0057610100808354040283529160200191610c2b565b820191906000526020600020905b815481529060010190602001808311610c0e57829003601f168201915b50505050508152602001600282018054610c44906118f6565b80601f0160208091040260200160405190810160405280929190818152602001828054610c70906118f6565b8015610cbd5780601f10610c9257610100808354040283529160200191610cbd565b820191906000526020600020905b815481529060010190602001808311610ca057829003601f168201915b5050505050815260200160038201805480602002602001604051908101604052809291908181526020016000905b82821015610d97578382906000526020600020018054610d0a906118f6565b80601f0160208091040260200160405190810160405280929190818152602001828054610d36906118f6565b8015610d835780601f10610d5857610100808354040283529160200191610d83565b820191906000526020600020905b815481529060010190602001808311610d6657829003601f168201915b505050505081526020019060010190610ceb565b50505050815260200160048201805480602002602001604051908101604052809291908181526020018280548015610e2457602002820191906000526020600020905b8160009054906101000a900473ffffffffffffffffffffffffffffffffffffffff1673ffffffffffffffffffffffffffffffffffffffff1681526020019060010190808311610dda575b50505050508152505090508273ffffffffffffffffffffffffffffffffffffffff168160800151600081518110610e5e57610e5d611898565b5b602002602001015173ffffffffffffffffffffffffffffffffffffffff1614610ebc576040517f08c379a0000000000000000000000000000000000000000000000000000000008152600401610eb390611b07565b60405180910390fd5b505050565b60008054906101000a900473ffffffffffffffffffffffffffffffffffffffff1673ffffffffffffffffffffffffffffffffffffffff163373ffffffffffffffffffffffffffffffffffffffff1614610f4f576040517f08c379a0000000000000000000000000000000000000000000000000000000008152600401610f4690611b99565b60405180910390fd5b8060018190555050565b828054610f65906118f6565b90600052602060002090601f016020900481019282610f875760008555610fce565b82601f10610fa057805160ff1916838001178555610fce565b82800160010185558215610fce579182015b82811115610fcd578251825591602001919060010190610fb2565b5b509050610fdb91906110c9565b5090565b82805482825590600052602060002090810192821561102e579160200282015b8281111561102d57825182908051906020019061101d929190610f59565b5091602001919060010190610fff565b5b50905061103b91906110e6565b5090565b8280548282559060005260206000209081019282156110b8579160200282015b828111156110b75782518260006101000a81548173ffffffffffffffffffffffffffffffffffffffff021916908373ffffffffffffffffffffffffffffffffffffffff1602179055509160200191906001019061105f565b5b5090506110c591906110c9565b5090565b5b808211156110e25760008160009055506001016110ca565b5090565b5b8082111561110657600081816110fd919061110a565b506001016110e7565b5090565b508054611116906118f6565b6000825580601f106111285750611147565b601f01602090049060005260206000209081019061114691906110c9565b5b50565b6000819050919050565b61115d8161114a565b82525050565b60006020820190506111786000830184611154565b92915050565b6000604051905090565b600080fd5b600080fd5b600073ffffffffffffffffffffffffffffffffffffffff82169050919050565b60006111bd82611192565b9050919050565b6111cd816111b2565b81146111d857600080fd5b50565b6000813590506111ea816111c4565b92915050565b6111f98161114a565b811461120457600080fd5b50565b600081359050611216816111f0565b92915050565b6000806040838503121561123357611232611188565b5b6000611241858286016111db565b925050602061125285828601611207565b9150509250929050565b600081519050919050565b600082825260208201905092915050565b60005b8381101561129657808201518184015260208101905061127b565b838111156112a5576000848401525b50505050565b6000601f19601f8301169050919050565b60006112c78261125c565b6112d18185611267565b93506112e1818560208601611278565b6112ea816112ab565b840191505092915050565b600081519050919050565b600082825260208201905092915050565b6000819050602082019050919050565b600082825260208201905092915050565b600061133d8261125c565b6113478185611321565b9350611357818560208601611278565b611360816112ab565b840191505092915050565b60006113778383611332565b905092915050565b6000602082019050919050565b6000611397826112f5565b6113a18185611300565b9350836020820285016113b385611311565b8060005b858110156113ef57848403895281516113d0858261136b565b94506113db8361137f565b925060208a019950506001810190506113b7565b50829750879550505050505092915050565b6000606082019050818103600083015261141b81866112bc565b9050818103602083015261142f81856112bc565b90508181036040830152611443818461138c565b9050949350505050565b611456816111b2565b82525050565b6000602082019050611471600083018461144d565b92915050565b600080fd5b600080fd5b7f4e487b7100000000000000000000000000000000000000000000000000000000600052604160045260246000fd5b6114b9826112ab565b810181811067ffffffffffffffff821117156114d8576114d7611481565b5b80604052505050565b60006114eb61117e565b90506114f782826114b0565b919050565b600067ffffffffffffffff82111561151757611516611481565b5b611520826112ab565b9050602081019050919050565b82818337600083830152505050565b600061154f61154a846114fc565b6114e1565b90508281526020810184848401111561156b5761156a61147c565b5b61157684828561152d565b509392505050565b600082601f83011261159357611592611477565b5b81356115a384826020860161153c565b91505092915050565b600067ffffffffffffffff8211156115c7576115c6611481565b5b602082029050602081019050919050565b600080fd5b60006115f06115eb846115ac565b6114e1565b90508083825260208201905060208402830185811115611613576116126115d8565b5b835b8181101561165a57803567ffffffffffffffff81111561163857611637611477565b5b808601611645898261157e565b85526020850194505050602081019050611615565b5050509392505050565b600082601f83011261167957611678611477565b5b81356116898482602086016115dd565b91505092915050565b6000806000606084860312156116ab576116aa611188565b5b600084013567ffffffffffffffff8111156116c9576116c861118d565b5b6116d58682870161157e565b935050602084013567ffffffffffffffff8111156116f6576116f561118d565b5b6117028682870161157e565b925050604084013567ffffffffffffffff8111156117235761172261118d565b5b61172f86828701611664565b9150509250925092565b600080600080600060a0868803121561175557611754611188565b5b6000611763888289016111db565b955050602061177488828901611207565b945050604086013567ffffffffffffffff8111156117955761179461118d565b5b6117a18882890161157e565b935050606086013567ffffffffffffffff8111156117c2576117c161118d565b5b6117ce8882890161157e565b925050608086013567ffffffffffffffff8111156117ef576117ee61118d565b5b6117fb88828901611664565b9150509295509295909350565b60006020828403121561181e5761181d611188565b5b600061182c84828501611207565b91505092915050565b7f4e487b7100000000000000000000000000000000000000000000000000000000600052601160045260246000fd5b600061186f8261114a565b915061187a8361114a565b92508282101561188d5761188c611835565b5b828203905092915050565b7f4e487b7100000000000000000000000000000000000000000000000000000000600052603260045260246000fd5b7f4e487b7100000000000000000000000000000000000000000000000000000000600052602260045260246000fd5b6000600282049050600182168061190e57607f821691505b60208210811415611922576119216118c7565b5b50919050565b7f4f6e6c7920746865206f776e6572206f66206120646f672063616e207669657760008201527f2069740000000000000000000000000000000000000000000000000000000000602082015250565b6000611984602383611267565b915061198f82611928565b604082019050919050565b600060208201905081810360008301526119b381611977565b9050919050565b60006119c58261114a565b91507fffffffffffffffffffffffffffffffffffffffffffffffffffffffffffffffff8214156119f8576119f7611835565b5b600182019050919050565b7f4f6e6c7920746865206f776e6572206f66206120646f672063616e207570646160008201527f7465206974000000000000000000000000000000000000000000000000000000602082015250565b6000611a5f602583611267565b9150611a6a82611a03565b604082019050919050565b60006020820190508181036000830152611a8e81611a52565b9050919050565b7f4f6e6c7920746865206f776e6572206f66206120646f672063616e2064656c6560008201527f7465206974000000000000000000000000000000000000000000000000000000602082015250565b6000611af1602583611267565b9150611afc82611a95565b604082019050919050565b60006020820190508181036000830152611b2081611ae4565b9050919050565b7f546869732066756e6374696f6e206973207265737472696374656420746f207460008201527f686520636f6e74726163742773206f776e657200000000000000000000000000602082015250565b6000611b83603383611267565b9150611b8e82611b27565b604082019050919050565b60006020820190508181036000830152611bb281611b76565b905091905056fea26469706673582212202f674977c8b47ce43bfd9420c27f9a929ff9ba85ab8b4290199e2824a5d1015464736f6c634300080a0033",
  "immutableReferences": {},
  "source": "// SPDX-License-Identifier: MIT\n/// @author Jon Senterfitt\npragma solidity >=0.4.22 <0.9.0;\n\ncontract DogsOfDallas {\n  address public owner = msg.sender;\n  uint public last_completed_migration;\n\n  modifier restricted() {\n    require(\n      msg.sender == owner,\n      \"This function is restricted to the contract's owner\"\n    );\n    _;\n  }\n\n  struct Dog {\n        uint id;\n        string name;\n        string birthdate;\n        // Array of breeds as strings\n        string[] breeds;\n        // Array of owners as addresses\n        address[] owners;\n    }\n\n    Dog[] dogs;\n    uint dogs_count;\n    uint dogs_registered;\n    uint dogs_updated;\n    uint dogs_deleted;\n    uint dogs_viewed;\n    \n    function DogsOfDallasConstruct() public {\n        dogs_count = 0;\n        dogs_registered = 0;\n        dogs_updated = 0;\n        dogs_deleted = 0;\n        dogs_viewed = 0;\n    }\n\n    // Add a new dog to the registry\n    function registerDog(string memory _name, string memory _birthdate, string[] memory _breeds) public {\n        dogs_registered++;\n        dogs_count++;\n        dogs.push(Dog({\n            id: dogs_count,\n            name: _name,\n            birthdate: _birthdate,\n            breeds: _breeds,\n            owners: new address[](0)\n        }));\n    }\n\n    // Update a dog by owner address and dog id\n    function updateDog(address _owner, uint _dog_id, string memory _name, string memory _birthdate, string[] memory _breeds) public {\n        dogs_updated++;\n        Dog memory dog = dogs[_dog_id - 1];\n        require(dog.owners[0] == _owner, \"Only the owner of a dog can update it\");\n        dog.name = _name;\n        dog.birthdate = _birthdate;\n        dog.breeds = _breeds;\n    }\n\n    // Delete a dog by owner address and dog id\n    function deleteDog(address _owner, uint _dog_id) public {\n        dogs_deleted++;\n        Dog memory dog = dogs[_dog_id - 1];\n        require(dog.owners[0] == _owner, \"Only the owner of a dog can delete it\");\n    }\n\n    // View a dog by owner address and dog id\n    function viewDog(address _owner, uint _dog_id) public view returns (string memory _name, string memory _birthdate, string[] memory _breeds) {\n        // dogs_viewed++;\n        Dog memory dog = dogs[_dog_id - 1];\n        require(dog.owners[0] == _owner, \"Only the owner of a dog can view it\");\n        _name = dog.name;\n        _birthdate = dog.birthdate;\n        _breeds = dog.breeds;\n    }\n\n    // This function allows owners of dogs in the city of Dallas to view the number of dogs registered on the blockchain.\n    function getDogsRegistered() public view returns (uint) {\n        return dogs_registered;\n    }\n\n    // This function allows owners of dogs in the city of Dallas to view the number of dogs updated on the blockchain.\n    function getDogsUpdated() public view returns (uint) {\n        return dogs_updated;\n    }\n\n    // This function allows owners of dogs in the city of Dallas to view the number of dogs deleted on the blockchain.\n    function getDogsDeleted() public view returns (uint) {\n        return dogs_deleted;\n    }\n\n    // This function allows owners of dogs in the city of Dallas to view the number of dogs viewed on the blockchain.\n    function getDogsViewed() public view returns (uint) {\n        return dogs_viewed;\n    }\n\n    // This function allows owners of dogs in the city of Dallas to view the number of dogs on the blockchain.\n    function getDogsCount() public view returns (uint) {\n        return dogs_count;\n    }\n    \n  function setCompleted(uint completed) public restricted {\n    last_completed_migration = completed;\n  }\n\n  \n}",
  "sourcePath": "/Users/jonsenterfitt/NEODAO/wip/truffle/dogs-of-dallas-project/contracts/DogsOfDallas.sol",
  "compiler": {
    "name": "solc",
    "version": "0.8.10+commit.fc410830.Emscripten.clang"
  },
  "schemaVersion": "3.4.7",
  "updatedAt": "2022-04-19T23:04:53.459Z",
  "networkType": "ethereum",
  "devdoc": {
    "kind": "dev",
    "methods": {},
    "version": 1
  },
  "userdoc": {
    "kind": "user",
    "methods": {},
    "version": 1
  }
}